:020000040800F2
:10000000104A0020B10200087F3B0008C5310008FB
:100010007D3B0008BD07000801AF0008000000009C
:10002000000000000000000000000000F1010008D6
:10003000C90B0008000000004D020008B57B000855
:10004000CB020008CB020008CB020008CB0200085C
:10005000CB020008CB020008CB020008CB0200084C
:10006000CB020008CB020008CB020008CB0200083C
:100070006D0B00086F0B0008CB020008CB020008D4
:10008000710B0008CB020008CB020008CB0200086D
:10009000CB020008CB020008CB020008CB0200080C
:1000A000CB020008CB020008CB020008CB020008FC
:1000B000CB020008CB020008CB020008CB020008EC
:1000C000CB020008CB020008CB020008CB020008DC
:1000D000CB02000815810008CB020008CB02000803
:1000E000CB020008CB020008CB020008CB020008BC
:1000F000CB020008CB020008CB020008CB020008AC
:10010000CB020008CB020008CB020008CB0200089B
:10011000CB020008CB020008CB020008CB0200088B
:10012000CB020008CB020008CB020008CB0200087B
:10013000CB020008CB020008CB02000811810008A6
:10014000CB020008CB020008CB020008CB0200085B
:10015000CB020008CB020008CB020008CB0200084B
:10016000CB020008CB020008CB020008CB0200083B
:10017000CB020008CB020008CB020008CB0200082B
:10018000CB020008CB020008CB020008CB0200081B
:10019000CB02000800000000CB020008CB020008E0
:1001A000CB020008CB020008CB020008CB020008FB
:1001B000CB020008CB020008CB020008CB020008EB
:1001C000CB020008CB020008CB020008CB020008DB
:1001D000CB020008CB020008DFF810D000F0BCF81A
:1001E00000480047C5B30008AFF30080104A002064
:1001F0002C4B19680868B0E8F04F80F30988BFF30A
:100200006F8F4FF0000080F31188704700000000EE
:1002100008480068006880F308884FF0000080F309
:10022000148862B661B6BFF34F8FBFF36F8F00DFE4
:1002300000BF00BF08ED00E0DFF80C00016841F4EA
:1002400070010160704700BF88ED00E0EFF30980A6
:10025000BFF36F8F134B1A681EF0100F08BF20ED0D
:10026000108A20E9F04F106009B44FF0300080F39D
:100270001188BFF34F8FBFF36F8F0BF00FFE4FF05E
:10028000000080F3118809BC19680868B0E8F04FD5
:100290001EF0100F08BFB0EC108A80F30988BFF37E
:1002A0006F8F7047F8000020EFF305807047000063
:1002B0000648804706480047FEE7FEE7FEE7FEE700
:1002C000FEE7FEE7FEE7FEE7FEE7FEE72D7C00081F
:1002D000D901000840EA01039B0703D009E008C9DF
:1002E000121F08C0042AFAD203E011F8013B00F8FB
:1002F000013B521EF9D27047D2B201E000F8012B47
:10030000491EFBD270470022F6E710B513460A4695
:1003100004461946FFF7F0FF204610BD421C10F8B6
:10032000011B0029FBD1801A704730B50B460146EE
:1003300000202022012409E021FA02F59D4205D384
:1003400003FA02F5491B04FA02F52844151EA2F12E
:100350000102F1DC30BD0000064C074D06E0E0680C
:1003600040F0010394E8070098471034AC42F6D3FC
:10037000FFF736FF68CA000888CA000830B58C1835
:1003800010F8012B12F00F0301D110F8013B1209F4
:1003900006D110F8012B03E010F8015B01F8015BB6
:1003A0005B1EF9D101E001F8013B521EFBD1A142D5
:1003B000E6D3002030BD000070B5044600688168B7
:1003C0008268C1F3400112F0010F28D039BB816867
:1003D00001F00D01012914D18168124A1140891CD4
:1003E000816021680320086002F018F8054612E0D9
:1003F00002F014F8401B02280DD920688068C0075D
:1004000009D0E06D40F01000E065206E40F0010082
:100410002066012070BD20688068C007E8D10020F8
:1004200070BD0000C0FFFF7F70B5044600688168A2
:1004300011F0010F2DD18168174A11421AD181683C
:10044000D5432940491C816001F0E8FF06461BE0C6
:10045000816811F0010F03D181682940491C816036
:1004600001F0DCFF801B02280ED920680068C04321
:10047000C00709D0E06D40F01000E065206E40F04C
:1004800001002066012070BD20680168C943C907CA
:10049000DED1002070BD00003F00008038B521484B
:1004A00003240168491C3BD0D0E900101E4B1F4AB1
:1004B00059405040014308D01820002200901CA34E
:1004C000114606200AF08CFC2AE0164B1E4A08331F
:1004D00000201968C400E1401154401CC0B2042837
:1004E000F7D300240F49194A1031204608C942F8B1
:1004F0002030401C0728F9D30A480C2214499030B8
:1005000003F070F9044308221249134803F06AF912
:1005100004431148702211497C3803F063F9044305
:10052000204638BD00F807080DF0ADDEBEBAADDEDE
:10053000475549204D656D6F727920697320636F4F
:100540007272757074656400140000201800002039
:10055000480000205400002018F907085C00002023
:100560002DE9F04385B0002472B601F01FFE002093
:100570000190FF2003900220029001200490374850
:10058000016911B14FF400410161694601A801F010
:1005900053FD08B1012459E00098401C56D1304A5F
:1005A000304B314901F0C4FDA8B9304A5078117878
:1005B0000002C317084391780904CC170143D0788F
:1005C0001C430206D3170A4327492343083100205E
:1005D00001F0AEFD08B1022438E0DFF88C80002580
:1005E000234F08F110082E462C464FF0FF3900BF6C
:1005F00057F82420641C072C02D257F8243000E05E
:100600004B4608EBC601002001F092FD00B1022527
:10061000641C761C072C01D2002DE9D02C0015D1CA
:1006200011480C221349903006F058FE04000DD1F9
:1006300008221149114806F051FE040006D10F4866
:1006400070220F497C3806F049FE044601F062FD35
:1006500062B6204605B0BDE8F083000000200240ED
:100660000DF0ADDEBEBAADDE00F8070814000020C4
:1006700018000020480000205400002018F9070846
:100680005C00002000A070474D42313339374200F2
:1006900000A0704753544D333247343734452D450D
:1006A00056414C0001004FF0000000D0801E704702
:1006B00001006FF00A0000D0C010704728B921B1C6
:1006C000002008606FF00A0070476FF0010070476B
:1006D00003004FF00000024614D199B10B4A126892
:1006E000126C40F6E44392B25A4340F6FF73B2FBF9
:1006F000F3F241F676335A434FF47A73B2FBF3F2D6
:100700000A6070476FF00100FAE70000CC0100209A
:1007100001004FF0000001D0801E704707490968B2
:100720008A68074B1A40121D8A60064A4FF400611E
:100730009162054A0421916170470000CC010020BC
:10074000C0FFFF7F0008004800040048F8B50024FF
:1007500008B1A41E13E00B4A4FF4006191620A49EC
:100760000546042040F2EE268861012001F052FC8B
:1007700069462846FFF7ACFF0098B042F5D2204604
:10078000F8BD0000000800480004004801004FF0D8
:10079000000001D0801E7047034A04219162034A81
:1007A00049029161704700000004004800080048B9
:1007B00001004FF0000000D0801E7047FEE70000EF
:1007C00070B5174A00EB400102EB8104C0EBC00199
:1007D000144890B050F8310041694069C1F30145B7
:1007E000C0F381462422104904A8FFF773FD0FA22D
:1007F00001AB07CA83E8070005EB45003044092830
:100800000CD204A911F82020216862F301012160B3
:1008100001A9095C207861F38400207010B070BDDC
:100820003C2300204823002078C900080503020368
:10083000040102010000000010B5044607F0B8FCF6
:10084000084804EB440150F8212042F0800240F8AF
:1008500021200549C4EBC40001EBC000C06ABDE81B
:10086000104000473C230020482300202DE9F0439E
:1008700080463D4C00EB48003C4D04EB8007C8EB44
:10088000C80605EBC60485B0C4E903128888810B4D
:10089000106861F311401060216920F44020086065
:1008A000002038607860B8604046E36208F0ACFC35
:1008B00045F83600684602F00FFF55F836006946E5
:1008C00002F0D0FE55F836000168294A114041F087
:1008D000F871016055F83600C16841F44061C160AB
:1008E0002448816841F4804181602348C16C41F013
:1008F0000201C164C06CDFF8849000F00200049033
:1009000003224021484602F026FD032210214846DA
:1009100002F021FD00224021484602F042FD002263
:100920001021484602F03DFD4046FFF7BBFE55F85A
:100930003600016841F000410160206900784007FD
:1009400002D5404607F0F6FBE0680079400708D57D
:100950000B48B860E0688088010B386861F38E301E
:10096000386005B0BDE8F0833C2300204823002018
:10097000FFFF0FE00070004000100240000400483C
:10098000BD0A00082DE9F74F81468A4600EB490170
:10099000DFF820B14648C9EBC90782B04FF0000824
:1009A0000BEBC70600EB81048AF800803069022552
:1009B0000078C00636D42068010610D520F08000EB
:1009C00020606078002320F03E0018306070C0F393
:1009D000440249460520CDF800800AF001FA60780B
:1009E000C0F3440010B30C2836D00D284CD0A368B7
:1009F00051464846049A984705466078A178C0F366
:100A00004400C1F3440290420CD060F34501A17050
:100A1000CDF8008060780023C0F3440249460520E9
:100A20000AF0DEF905B02846BDE8F08F5BF8370024
:100A3000026942F4004202615BF83700016941F447
:100A4000804101611C49402081F800041A49400698
:100A50003B39C1F8000124E0484607F0A9FBC6F87D
:100A600034800499C1F80080206820F003002060E1
:100A700001208AF8000001F0D1FC606060781A253E
:100A800020F03E001A3010E001F0C8FC6168401A06
:100A90001A28B2D930690078400702D5484607F0D5
:100AA00049FB607820F03E00801C6070A5E70000E4
:100AB0003C230020482300203FE000E070B50546BD
:100AC00000EB4503284800EB830402206378C3F35E
:100AD00044030C2B13D2DFE803F0121318421D421B
:100AE0001212121312062846FFF7E2FD284607F0FD
:100AF00021FB607820F03E00801C6070002070BDFB
:100B00002846BDE8704002F0F1BF2846BDE87040BD
:100B100002F00CBF2E464FF0FF353046FFF750FE77
:100B20002078C0F3820020B1012809D0032814D115
:100B300006E0607820F03E001230607001250CE085
:100B4000607820F03E00001D607001F067FC401FDF
:100B500060603046FFF7DCFD0225284670BD284660
:100B6000BDE8704002F06ABF3C2300207047704728
:100B700007F0ECB970B5044611480D4650F8341032
:100B800062F3871140F834100121204608F0E2FC9E
:100B90002946204608F0F4FA094D083D55F824008E
:100BA00000280CD144B1074821460AF0EDFC45F875
:100BB0002400002803D1FEE702481438F4E770BD92
:100BC00040000020B4C8000870470000144A117F9C
:100BD0001448012901D003290FD1036823F40073BD
:100BE0000360036843F400630360036823F4006355
:100BF0000360036843F400730360022901D00329F2
:100C00000BD1016841F480510160016821F48051E9
:100C10000160016841F48061016000201077704735
:100C2000D8000020002002400C490A6A520210D568
:100C3000C20703D04A6942F004024A61800703D523
:100C4000486940F400404861486940F48030486198
:100C50007047486948F204021043F4E7002002405C
:100C60000E4A136A5B0201D5C90703D0516921F40A
:100C7000006102E0516941F4006151615169C0B203
:100C800021F47E7141EAC0005061506940F00200D9
:100C90005061506940F4803050617047002002403C
:100CA000054910B54C6944F001044C610260BFF382
:100CB0006F8F436010BD000000200240094A10B54C
:100CC0005469402344F480245461EFF3108272B6D7
:100CD00010C95B1E10C013F0FF03F9D182F3108816
:100CE00010BD00000020024070B5064601F096FBE2
:100CF0000546134C07E000BF01F090FB401BB042DB
:100D000001D9032070BD2069C003F5D420694CF2DD
:100D1000FA3108400CD00B494A6802434A60010F7F
:100D200001D0A169A161010100D02061012070BD45
:100D30002069C00701D001202061002070BD0000A3
:100D400000200240D800002010B572B600F01EF856
:100D500062B6012807D1044801221146006ABDE8A5
:100D600010400AF0E3BB10BD700100200EB50B4629
:100D70000092C0B202AA01A900F01CFA20B19DF8AD
:100D80000810019807F05AF800200EBDF0B5384A57
:100D900000252B46D688FF2E11D8364CA05509B118
:100DA0000421517092F801C003274FF6FF71BCF186
:100DB000050F58D2DFE80CF0082C17365400D3800A
:100DC000938053700020F0BDFD2802D09380D18025
:100DD00049E09088401C80B29080042843D19380E1
:100DE000022050703FE09188491C89B2918003290C
:100DF00039D1A11911F8011C00EB01200004000CED
:100E0000108103D00120507093802CE05770FBE7D5
:100E10009088401C80B290801189884223D19380B1
:100E2000577020E097887F1CBFB29780A52812D109
:100E3000A01910F8014CA52C0DD110F8024CA52CCE
:100E400009D110F8030CA52805D1042F00D10125E4
:100E50009380D18053701089D4880B30844202D1A2
:100E60009380D1805370D088401CD0802846F0BD3C
:100E700070010020802300202DE9F0438BB09946BB
:100E800016460F4680460125FFF708FB00B10120FA
:100E9000274C2949A0702748406810F47F0F37D0AD
:100EA000020E35D0C0F3074202EB1063000E64223D
:100EB00010FB02F2B2FBF3F3886E63F31640C0F34B
:100EC0000643B2FBF3F262F34F208866C4F8189031
:100ED000C4F80C80C4E90476184A1949194808F086
:100EE00031F919491422D1E90001CDE9030116496C
:100EF00005A80831FFF7EEF9002103A80AF0C8FAA7
:100F00000B492062203105A80AF03EFB50B10AE0EF
:100F1000886E20F47E4000F5204020F4FE0000F5AD
:100F20004810D2E7002562B628460BB0BDE8F08332
:100F300070010020480000205C000020C10F000864
:100F40004D0F00086D0D0008BCC90008064B1A784B
:100F5000012A07D102EB006040EA01110022186A61
:100F60000AF0E4BA70470000700100201CB510F4CC
:100F70007F6F0CD0C0F30712C0F301646B2A19D045
:100F80004FF400512046FFF7F1FE00201CBD01A9DF
:100F9000684600F067F80028F7D0022805D09DF8D1
:100FA0000410009806F04AFFEFE7FFF7D9FA01F0C6
:100FB000C5FAEAE701F032FA02464FF40061E1E7D0
:100FC00070B516460A461D469908254BC0EBC00071
:100FD00003EB0014052A28D008DC022A0DD0042ACD
:100FE00022D11C2D20D80020E1611AE0062A2CD045
:100FF000132A19D104F154002BE0042D14D104F16B
:1010000040002A463146FFF765F93078E06404F184
:101010004C001EE006EB800204EB800112680A60BF
:10102000401CB0EB950FF5D370BD1C2DFCD80020F3
:10103000E16306E006EB800204EB800112680A62BD
:10104000401CB0EB950FF5D370BD042DFCD104F11D
:1010500050002A463146BDE87040FFF73BB900001A
:10106000802500202DE9F0430E464F490546DFF864
:101070003C81087989B0440900F01F024009401EF4
:1010800001F580774FF00109062A32D006DC012AEB
:101090000BD0022A0DD0042A7CD123E0092A2FD0BC
:1010A0000E2A44D0102A75D150E0022009B0BDE8C4
:1010B000F0833F49204606F033FC3D482F6006F0A0
:1010C00078FE0830C1B23170286806F0B7FE88F8A3
:1010D00000902CB96A2246F220010020FFF746FE5C
:1010E0000020E3E78CB3C0B2314A2F4906F01EF965
:1010F00050E054B3C0B22E4A2B4906F09FFA49E0A3
:101100002CB1C0B22A4A284905F056FF42E0284BCC
:1011100005244FF480720B21684606F06CFE002314
:101120001A462146684606F08FFD68462AE064B1FB
:101130004A790AB98A792AB1CA79C0B21C4906F03B
:10114000FDFC27E0C0B2FF22F8E71EE0ECB1C4B21C
:10115000DFF85C901449684606F039FE07AB06AA32
:1011600005A9684606F002FE684606F0F4FD600137
:101170002030C0B240F011014B460C2202A806F00C
:101180003AFE02A806F0EBFD04E0052208492046DD
:1011900006F040FA06482F6006F00BFE083030706B
:1011A00098F8000082E700008023002070010020F2
:1011B000802400202DE9FF4FDFF80CB4044695B0E1
:1011C0009BF800001F464FF0000A01287ED1600105
:1011D0002030C0B240F00C01FC4B4FF480726846E6
:1011E00006F009FEFA4DB80656D535F8340003ABC3
:1011F000C0F302208DF80C0001220521684606F09C
:1012000023FD55F83400C10446D5C0F381108DF894
:10121000100004AB01220621684606F015FD15F802
:10122000340005ABC0F380008DF8140001220821C2
:10123000684606F009FD03208DF81C0007AB01226B
:101240000921684606F000FD55F83400C0F302217C
:10125000032921D1C0F3C0008DF8200008AB012282
:101260000721684606F0F0FC35F8340009ABC0F3FE
:10127000C0308DF8240001220A21684606F0E4FC03
:1012800015F834000AAB00F003008DF828000122A5
:101290000D21684606F0D8FCB80470D5CD48C4EBE3
:1012A000C402229900EB021606F120094FF6FF78DE
:1012B0006A297DD022AB01220E21684606F0C4FCCB
:1012C0002298242875D00EDC102800E078E157D051
:1012D00004DC072834D00D2851D141E0142801D076
:1012E00015284CD19FE0252863D038287ED042288D
:1012F0007DD05A2843D135F8340007ABC0F3022023
:101300008DF81C0001220521684606F09DFC55F869
:10131000340010F4E06F32D1C0F381108DF80C006E
:1013200003AB01220621684606F08EFC15F8340056
:1013300004ABC0F380008DF810000122082195E075
:1013400096F83C008DF8200008AB01220021684689
:1013500006F07AFCF16B4B4608EA8102042185E035
:10136000307F8DF8240009AB01220321684606F086
:101370006BFCF169334608EA8102022176E078E0ED
:1013800015F83400400710D4307F8DF84C0013ABB3
:1013900001220321684606F057FCF169334608EA4A
:1013A00081020221684606F04FFC96F8400001E0F9
:1013B000A1E040E08DF8280001220AAB1146684602
:1013C00006F042FC15F834000BABC0F3C0008DF8FA
:1013D0002C0001220721684606F036FC15F834007F
:1013E0000CABC0F380008DF8300001E02DE034E05C
:1013F00001220821684606F027FC35F834000DABC1
:10140000C0F3C0308DF8340001220A21684606F08E
:101410001BFC15F834000EAB00F003008DF838000B
:1014200001220D2122E015F834000FABC0F380003B
:101430008DF83C0081E715F834000122C0F3C000AC
:101440008DF8400010AB072110E015F8340011AB07
:1014500000F003008DF84400E2E735F83400012283
:10146000C0F3C0308DF8480012AB0A21684606F080
:10147000EBFB380523D500200646039022AB04225F
:101480001321684606F0E0FBDBF8141069B1204632
:10149000D84688470390D8F8140030B1D8F818100F
:1014A00020468847060000D54642039803AB40EA31
:1014B0000640039004220C21684606F0C5FB780420
:1014C00005D522AB04221321684606F0BDFB380483
:1014D00064D535F8340003ABC0F302208DF80C005E
:1014E00001220521684606F0AFFB55F8340010F4E0
:1014F000E06F3DD052E035F83400C004B9D5F06B50
:1015000078B18DF8240009AB01220021684606F06D
:101510009BFBF16B4B4608EA81020421684606F00A
:1015200093FB96F840008DF81C00012207AB114692
:10153000684606F089FB15F83400400710D4307F68
:101540008DF8140005AB01220321684606F07CFBF0
:10155000F169334608EA81020221684606F074FB0D
:1015600015F8340008AB00F003008DF8200057E7B1
:10157000C0F381108DF8100004AB012206216846EB
:1015800006F062FB15F8340005ABC0F380008DF85F
:10159000140001220821684606F056FB684606F052
:1015A000DEFB0A4806F005FC50B1169807490160B9
:1015B000084606F0FEFB179908304FF0010A087044
:1015C00019B05046BDE8F08F700100208024002043
:1015D000400000208025002006480079000607D53D
:1015E00004481A380188490402D00188491E018044
:1015F0007047000094010020F8B5002604460096CC
:1016000090F858000D4601280BD0012084F85800AE
:101610002046FEF7D1FE0100E06D04D040F010003E
:101620002AE00220F8BD20F4885040F00200E06576
:1016300020688268134B1A4005F080431A4342F039
:1016400000428260104A20680EE0009B5B1C009301
:10165000934209D3E06D20F0020040F01000E065F5
:1016600084F858600120F8BD8368DB0FEDD1E06D90
:1016700020F0020040F00100E06584F85860084660
:10168000F8BD0000C0FFFF3F02DE04002DE9F04F6F
:10169000044690F858009BB00F464FF0000B01280D
:1016A00012D0012084F8580000261796189620685A
:1016B0004FF0A048DFF81C91DFF81CA1474D4045D2
:1016C00006D12846009508E002201BB0BDE8F08F47
:1016D00048450AD15046CDF800A001F082FD0090A7
:1016E000206801F07EFD40B109E0E06D40F020008F
:1016F000E06584F858600120E7E7009850B1E06D9C
:1017000040F02000E0654FF0010B00BF84F8586006
:101710005846DAE720684146884201D0A84201D104
:101720002F4800E02F48D7F800C02F4B40F61F721B
:10173000BCF1000F2DD0D0F808C094F838802CF4FC
:10174000604C4CEA483CD7F804804CEA080CC0F8DE
:1017500008C0D4F800C08C4501D0AC4504D18968DC
:10176000AB6801F0010109E0D9F80810DAF8085077
:1017700001F0010105F001059B68294303F0010315
:101780001943C3D1BB68396819438368934319432C
:101790001DE0876827F46047876027688F4201D083
:1017A000AF4204D18968AB6801F0010109E0D9F8C2
:1017B0000810DAF8085001F0010105F001059B68F6
:1017C000294303F001031943A0D18168914381604B
:1017D0009CE700000004005000050050000100508C
:1017E0000003005000070050000600502DE9F84F9C
:1017F00000270446009790F85800DFF814840D463F
:10180000B946012811D0012684F85860206801F0FB
:10181000E4FC60B1E06D40F02000E0655FF001079E
:1018200084F858903846BDE8F88F0220FBE7D5E9E8
:1018300000210C23206803EA91131844036B01F084
:101840001F014FF01F0C0CFA01FCC2F3846223EA63
:101850000C038A4013430363206801F0BEFC8246F8
:10186000206801F0B6FC5AEA00003CD1AA68296859
:101870002068B2F1004F37D001F0B7FC2068416911
:1018800021F00041416120686969C268C2F3C10268
:10189000520091402A69042A31D000EB82002B6863
:1018A000026EDFF870C303F0F84302EA0C020B4348
:1018B0001A4342F00041016622682869A96902EBD7
:1018C0008000026E22F080720A430266297F20683F
:1018D0002A69012910D0002100EB8200026E22F05B
:1018E00000720A4302667DE0002201F07EFC20685F
:1018F000416941F00041C5E74FF00071ECE700217C
:1019000001F061FC400320684FF0000172D001F04B
:101910005AFC90FAA0F0B0FA80F1286842036ED029
:1019200090FAA0F0B0FA80F0814204D10022114672
:10193000206801F069FC0121206801F044FC4003AB
:1019400020684FF001015DD001F03DFC90FAA0F05D
:10195000B0FA80F12868420359D090FAA0F0B0FAAA
:1019600080F0814204D100220121206801F04CFC6A
:101970000221206801F027FC400320684FF002019B
:1019800048D001F020FC90FAA0F0B0FA80F128686D
:10199000420344D090FAA0F0B0FA80F0814204D122
:1019A00000220221206801F02FFC0321206801F0B1
:1019B0000AFC400320684FF0030133D001F003FC20
:1019C00090FAA0F0B0FA80F1286842032FD090FA84
:1019D000A0F0B0FA80F0814204D1002203212068F7
:1019E00001F012FC2068816811F0010F22D0A8E0FC
:1019F00000E004E001F0E7FBC0F384618DE7C0F391
:101A0000846091E701F0DFFBC0F38461A2E7C0F3DB
:101A10008460A6E701F0D7FBC0F38461B7E7C0F3A9
:101A20008460BBE701F0CFFBC0F38461CCE7C0F377
:101A30008460D0E7EB682968434550F8B03FC1F3B4
:101A4000120101D10B4300E08B430360E86840457D
:101A500077D1286841031CD090FAA0F1B1FA81F146
:101A6000491C01F01F0109294FEA403132D80029F1
:101A700012D000BF90FAA0F1B1FA81F101F1010199
:101A800001F01F0106FA01F609D100BFC0F384611D
:101A900009E0C0F38461E3E7C0F38461EEE790FA04
:101AA000A0F1B1FA81F101F1010101F01F0146EA53
:101AB000816102D1C0F3846003E090FAA0F0B0FA33
:101AC00080F000F1010000F01F0000EB400041EA4F
:101AD000005132E000290ED090FAA0F1B1FA81F164
:101AE00001F1010101F01F0106FA01F606D100BF64
:101AF000C0F3846106E0C0F38461F1E790FAA0F1DD
:101B0000B1FA81F101F1010101F01F0146EA8161A1
:101B100002D1C0F3846003E090FAA0F0B0FA80F044
:101B200000F1010000F01F003B4A00EB400002EB17
:101B3000005041EA000141F00071AA68206801F0FC
:101B400054FB36482B6803423FF46AAE22684FF0DC
:101B5000A04C3348334E344D624501D0AA4201D1E6
:101B6000014600E031468968DFF8C08001F0E0718D
:101B7000434503D0DFF8B880434521D15FEA01280F
:101B80001ED4624506D02B4B9A427FF449AEAA423E
:101B900000D0304641F40001826822F0E0720A432E
:101BA0008260254825490068B0FBF1F0401C00EB3D
:101BB0004000800000E0401E00900028FBD12FE68E
:101BC000DFF87C8043450FD15FEAC1180CD4AA42EC
:101BD00002D11C4B9A42F2D0624502D0AA4200D0F8
:101BE000304641F080710CE0DFF85C804345E6D17F
:101BF0004B02E4D4AA42E2D0624500D0304641F420
:101C00008001826822F0E0720A43826008E60000E8
:101C100000007F4000F0FF03000020FE000008806D
:101C2000000300500007005000010050000021C3D5
:101C30001000C0900006005000000020400D03007E
:101C4000000052C700050050000084CBF8B54FF0EB
:101C5000000504002E46009502D0E06D10B107E0AB
:101C60000120F8BD204600F00DF9266684F8586082
:101C700020688168C1F3407119B18168754A1140CB
:101C8000816020688168C1F3007189B98168724AF6
:101C9000114041F080518160704871490068B0FB8B
:101CA000F1F04000801C00E0401E00900028FBD1B5
:101CB00020688168C1F3007141B9E16D41F0100104
:101CC000E165216E41F001012166012501F085FAEF
:101CD000E16DC90600D430B1E06D40F01000E06560
:101CE00001252846F8BDE06D20F4807040F0020028
:101CF000E0652068816811F0010F27D14FF0A04303
:101D0000584A984201D0904204D19968966801F0EF
:101D100001010AE054498968544E01F00101B66896
:101D200006F001063143524EB66806F00106314313
:101D30000CD1984201D0904201D14E4800E04E486B
:101D40006168826822F47C120A438260E168E06B79
:101D5000627F0843A16841EA4231084394F82410A5
:101D600040EA0140012904D1218D444A02EB41415E
:101D70000843E16A29B101F47871226B014342EA18
:101D800001002168CA683E4B1A400243CA602068BD
:101D90000169626B21F0406111430161206801F02B
:101DA0001CFA0646206801F014FA30432ED1207F39
:101DB00094F83810800340EA41012068C26844F278
:101DC00002039A430A43C26020690028206801691F
:101DD0000AD041F480310161206850F8C01F2269A7
:101DE0006FF30D01114307E021F480310161206898
:101DF00050F8C01F6FF30D01016094F840000128F6
:101E00000CD02068016921F001010161606901289D
:101E10002068016B21F00F0111D013E0D4E911010A
:101E20000843D4E913121143084321680A6940F2B8
:101E3000FC739A43104340F001000861E6E7226A10
:101E4000521E11430163E06D20F0020040F00100DA
:101E5000E06546E7C0FFFF5FC0FFFF7F0000002096
:101E6000400D030000010050000400500005005028
:101E70000006005000030050000700500000FEFF65
:101E80000740F0FF10B586B0044614216846FEF7FF
:101E90003AFA2068B0F1A04F1AD10E48C16C41F453
:101EA0000051C164C16C01F400510591C16C41F055
:101EB0000401C164C06C694600F004000590012073
:101EC00000900320019000200290034800F082F966
:101ED00006B010BD00100240000800482DE9F04196
:101EE000044600684FF0A045444FA84201D0B842D4
:101EF00001D1434900E04349896801F01F0601F020
:101F00006CF918B102210846BDE8F08194F8580038
:101F100001280CD0012084F858002046FEF784FAEE
:101F200001004FF0000204D084F85820EBE70220B3
:101F3000EAE7E06D40F60163984340F48070E065A5
:101F40002068314BDFF8C4C0B84201D1AE4604E08E
:101F5000984201D1E64600E08646864500D02EB97B
:101F6000D4F85CE02EF4801EC4F85CE0D4F85CE0A9
:101F70005FEACE4E06D5D4F860E02EF0060EC4F827
:101F800060E000E022664FF01C0EC0F800E084F82C
:101F900058202068B84201D12A4604E0984201D175
:101FA000624600E0024682420ED06EB1052E0BD092
:101FB000092E09D0E26D42F48012E265B84213D0D6
:101FC000984210D165460FE0C268920105D5E26DD6
:101FD00022F4005242F48052E26582680C4B1A40AF
:101FE000121D82608FE70546E86880018BD5E06DA1
:101FF00020F4005040F48050E06584E70001005078
:10200000000300500007005000050050000400507D
:10201000C0FFFF7F70B5044600F000FA0546601C63
:1020200002D004484068044400F0F8F9401BA04284
:10203000FAD370BDCC0000202DE9F05F054633488F
:102040008946017801290CD00126804606704FF49C
:102050007A7B5846FEF748FE07004FF0000A03D08F
:102060004FE00220BDE8F09F51464046C8F804A06A
:10207000274C226892050AD52168490505D52168B3
:1020800021F480612160032109E0067708E02268DD
:10209000520504D5216821F4806121600221017775
:1020A0002868012807D04FF0FF31C9F8001040F22E
:1020B000FA3BAE681EE06868FEF7B6FD5846FEF7CC
:1020C00013FE0746606948F204018843606116E028
:1020D00030466968FEF7C4FD4FF47A70FEF704FEDF
:1020E0000700606920EA0B00606102D0C9F8006057
:1020F00005E0761CD5E902010844B042E8D8FEF7B5
:1021000065FD88F800A03846ACE70000D800002044
:1021100000200240054901204A6942F000424A611C
:102120004969002900DA00207047000000200240C1
:102130002DE9F0471B4D04461646287898468A46F6
:10214000012809D0012028704FF47A794846FEF71B
:10215000CBFD002718B119E00220BDE8F0876F60C1
:1021600024B1012C09D0022C07D00CE032464346A2
:102170005046FEF795FD01240CE031465046FEF72F
:102180009DFD022C04D04846FEF7AEFD2F70E4E71B
:102190004FF480244846FEF7A7FD03494A69A2434D
:1021A0004A61F3E7D80000200020024006490020E1
:1021B0004A69002A07DA054A8A60054A8A6049693D
:1021C000002900DA01207047002002402301674502
:1021D000AB89EFCD2DE9F04FDFF8209200230126E7
:1021E0000324A9F1040B85B00F2709F1040AABF110
:1021F000040EFAE006FA03F52A407CD091F804C0F8
:102200000CF0030CBCF1010F02D0BCF1020F26D17F
:10221000D0F808C0CDF800C04FEA430C04FA0CF81F
:10222000CDF810C0DDF800C02CEA080CCDF800C0D5
:10223000D1F80C80DDF810C008FA0CF8DDF800C009
:1022400048EA0C08C0F80880D0F804C02CEA050C55
:102250000D79C5F300159D4045EA0C0545600D79E3
:10226000ED43AD070ED0C5684FEA430804FA08FCF9
:1022700025EA0C05D1F808C00CFA08FC4CEA050C5C
:10228000C0F80CC00D7905F00305022D16D1DD084C
:1022900000EB850CCDF808C0DCF820805D074FEA24
:1022A000D56C07FA0CF528EA05080D6905FA0CF556
:1022B000DDF808C045EA0805CCF8205005684FEA6B
:1022C000430CCDF808C004FA0CFC25EA0C0591F883
:1022D00004C00CF00308DDF808C008FA0CF848EA5E
:1022E0000508C0F800804D6815F4403F7CD0444D8F
:1022F000D5F860C000E077E04CF0010CC5F860C094
:102300002D6E23F0030C05F0010500953D4D65444D
:102310000295AD684FEA837C4FEA1C7807FA08FC07
:1023200025EA0C05B0F1904F06D0DFF8DCC060451F
:1023300005D14FF0010C20E04FF0000C1DE0DFF85C
:10234000CCC0604502D14FF0020C16E0DFF8C0C0EF
:10235000604502D14FF0030C0FE0DFF8B8C06045D4
:1023600002D14FF0040C08E0DFF8ACC0604502D1A8
:102370004FF0050C01E04FF0060C0CFA08FC4CEA9B
:10238000050C029DC5F808C0D9F80050CC46D1F81C
:10239000048095435FEAC82800D51543CCF8005067
:1023A000DAF80050D446D1F8048095435FEA8828D3
:1023B00000D51543CCF80050DBF80050DC46D1F8CE
:1023C000048095435FEA883800D51543CCF8005067
:1023D000DEF80050F446D1F8048095435FEAC8382F
:1023E00000D51543CCF800505B1C0A6832FA03F59F
:1023F0007FF400AF05B0BDE8F08F00000804014095
:10240000001002400000014000040048000800489D
:10241000000C004800100048001400480148806883
:1024200070470000CC0000200248816842681144D7
:1024300081607047CC00002010B50024032000F01C
:102440006BF80F2000F008F808B1012401E000F05B
:1024500025F8204610BD000070B50E4E054600243C
:10246000706898B14FF47A71B1FBF0F00A490968CD
:10247000B1FBF0F000F006FC40B9102D06D20022AE
:102480002946501E00F028F8356000E0012420465F
:1024900070BD0000CC000020000000200D4808B5F1
:1024A000016E41F001010166016E01F00101009130
:1024B000816D41F080518165806D002200F0805077
:1024C00000900F21901E00F007F8BDE8084000F0D2
:1024D000A5B8000000100240F0B40E4B1B680C467B
:1024E000C3F30223C3F10705042D00D90425191DE8
:1024F000072901D2002300E0DB1E012606FA05F1C0
:10250000491E214099409E40761E16403143F0BC42
:1025100008F03CBD0CED00E0064900F00702086839
:102520004FF6FF03184040EA0220034A10430860B8
:10253000704700000CED00E00000FA05BFF34F8F7C
:1025400005480168054A01F4E06111430160BFF3E9
:102550004F8F00BFFDE700000CED00E00400FA051E
:102560002B492C4B0A6832214A432B4940B1B0F524
:10257000007F086829D020F4C06040F480602CE01F
:102580000868C0F34120022804D051F8800F20F4DD
:10259000807022E0D1F8800020F48070C1F88000C3
:1025A000086820F4C06040F400700860B2FBF3F0EB
:1025B000401C00E0401E4A69520501D50028F9D1AF
:1025C000486940050AD503207047C0F3412002281E
:1025D00006D051F8800F40F48070086000207047EA
:1025E000D1F8800040F48070C1F88000086820F4C1
:1025F000C06040F400700860B2FBF3F0401C00E0E3
:10260000401E4A695205DBD50028F9D1D8E7000001
:102610000000002040420F00007000400248816826
:1026200041F4804181607047007000402DE9F0471F
:102630000E4605004FF0000725D0DFF8AC81D8F832
:10264000000000F00F00B0420CD2D8F8001021F0CA
:102650000F013143C8F80010D8F8000000F00F0057
:10266000B04210D12968614CC80741F2883A5AD06B
:102670006868DFF87C91032808D0022820682DD0F4
:10268000400500282CDB0120BDE8F0872068800190
:10269000F9D5E06800F00302E068C0F30310401CC5
:1026A000032A19D0534A00BFB2FBF0F0E268C2F32C
:1026B00006225043E268C2F34162521C5200B0FB52
:1026C000F2F0484517D9A06810F0F00F0CD0880739
:1026D00011D5A86840B10EE0474AE5E78003D0E78E
:1026E00000F092F8484506D9A06820F0F00040F0CC
:1026F0008000A0608027A068696820F0030008437C
:10270000A060FFF78BFE814606E000BFFFF786FE64
:10271000A0EB090151453AD8A068696800F00C00A7
:10272000B0EB810FF2D12868810714D5400703D59B
:10273000A06840F4E060A0602878000705D5A06894
:1027400020F4605040F4E060A060A068A96820F028
:10275000F000084304E0802F03D1A06820F0F000CF
:10276000A060D8F80010404601F00F01B14216D920
:10277000016821F00F0131430160FFF74FFE07466A
:1027800007E000BFFFF74AFEC11B514501D90320F6
:102790007AE7D8F8000000F00F00B042F2D12878B4
:1027A000400705D5A068E96820F4E0600843A06010
:1027B0002878000706D5A068296920F4605040EA0F
:1027C000C100A06000F020F8A1680C4AC1F3031119
:1027D000515C01F01F01C8400949086009480068C0
:1027E000BDE8F047FFF738BE00200240001002406D
:1027F00000B4C4040024F40000366E015CC8000874
:1028000000000020CC000020184910B58868C0F3F3
:1028100081021748012A0BD08A68164BC2F3810245
:10282000022A06D08A68C2F38102032A03D000205C
:1028300010BD184610BDCA6802F00304CA68C2F38E
:102840000312521C032C02D0B0FBF2F001E0B3FBE8
:10285000F2F0CA68C968C2F306225043C1F341616D
:10286000491C4900B0FBF1F010BD0000001002400F
:102870000024F40000366E012DE9F84304007AD0FC
:102880002078FA4DC00747D0A868E96800F00C002E
:1028900001F003010C2802D0082817D001E0032919
:1028A00014D06068B0F5803F17D0B0F5A02F28682D
:1028B00017D020F480302860286820F48020286019
:1028C0006068E0B1FFF7AAFD064614E028688003BF
:1028D00022D560680028D2D01EE0286840F48030FD
:1028E000EDE740F480202860F7E700BFFFF796FD92
:1028F000801B642870D828688003F7D50CE0FFF7A8
:102900008DFD064605E000BFFFF788FD801B6428AB
:10291000F0D828688003F7D4207880074CD5A868C1
:10292000E96800F00C0001F003010C2802D0042833
:102930000DD001E002290AD0E068002828682BD0D9
:1029400040F480702860FFF769FD064619E02868AA
:10295000400502D5E068002891D06868217C20F00D
:10296000FE4040EA01606860C1480068FFF774FDFE
:10297000002800D120E076E1FFF750FD801B0228FF
:10298000B8D828684005F7D56868217C20F0FE405B
:1029900040EA016068600FE020F480702860FFF773
:1029A0003DFD064605E000BFFFF738FD801B02280D
:1029B000A0D828684005F7D42078000729D5606999
:1029C0000028D5F8940013D040F00100C5F8940019
:1029D000FFF724FD064606E090E000BFFFF71EFD6E
:1029E000801B022886D8D5F894008007F6D510E021
:1029F00020F00100C5F89400FFF710FD064604E042
:102A0000FFF70CFD801B022878D8D5F894008007CA
:102A1000F6D42078400761D5A86D0026C00008D400
:102A2000A86D40F08050A865A86D012600F0805088
:102A3000009090480168C90511D40168804641F4AE
:102A400080710160FFF7EAFC074604E0FFF7E6FC4F
:102A5000C01B022852D8D8F80000C005F6D5A068DF
:102A6000012815D00528D5F8900016D020F00100D7
:102A7000C5F89000D5F8900020F00400C5F890004B
:102A8000A06841F28838B8B1FFF7C8FC07460EE0ED
:102A9000D5F8900040F00100F0E740F00400C5F8E0
:102AA0009000F5E7FFF7BAFCC11B414526D8D5F8E1
:102AB00090008007F6D50CE0FFF7B0FC074604E075
:102AC000FFF7ACFCC11B414518D8D5F89000800732
:102AD000F6D41EB1A86D20F08050A865207880063D
:102AE00029D5A0690028D5F8980013D040F001003E
:102AF000C5F89800FFF792FC064606E077E000BFB5
:102B0000FFF78CFC801B022877D8D5F89800800747
:102B1000F6D510E020F00100C5F89800FFF77EFC24
:102B2000064604E0FFF77AFC801B022865D8D5F83A
:102B300098008007F6D4E069F0B3A968C1F3810179
:102B4000032961D00228286820F0807028600BD00B
:102B5000E86820F00300E860E86847490840E8605A
:102B6000FFF75CFC04464BE0FFF758FC064604E028
:102B7000FFF754FC801B02283FD828688001F7D457
:102B8000F4E908016FF00F0202EB01110843218AFA
:102B90005204490802EB4151A26841EA022108436C
:102BA000217D4FF07E42490802EB41610843217BC1
:102BB00040EAC160E96800E062E0304A1140084341
:102BC000E860286840F080702860E86840F0807015
:102BD000E860FFF723FC044605E000BFFFF71EFC9A
:102BE000001B022809D828688001F7D548E004E0D6
:102BF000FFF714FC001B022802D90320BDE8F8836C
:102C000028688001F4D43BE00128F7D0E868226A04
:102C100000F00301914226D1616A00F0F00209013F
:102C2000103991421FD1A26A00F4FE41B1EB022F8C
:102C300019D194F82C2000F07841B1EBC26F12D179
:102C4000218E00F4C00249084905A1F50011914206
:102C500009D194F8341000F0C06049084906A1F188
:102C6000007181420CD00120C8E700000010024032
:102C7000CC00002000700040FFFFEEFE0C809F01A2
:102C80000020BBE710B5401EB0F1807F01D30120CA
:102C900010BD4FF0E02460610F21601708F076F955
:102CA0000020A06107202061002010BD38B5044637
:102CB00001290ED0082000900CA3002221460620F6
:102CC00008F08EF82046FDF741FD002800D01020C6
:102CD00038BD0720009008A300222146062008F0F6
:102CE0007FF82046FDF752FDEFE7000056425553AE
:102CF000204F46460000000056425553204F4E00DC
:102D000008B56946FDF7DAFC009800B208BD08B5C1
:102D10006946FDF7DDFC009880B208BD2DE9F04161
:102D20000F46804607F09AFF404606F083FB364E7A
:102D3000C8EBC80406EBC4056860404606F058FBC3
:102D4000A86056F8341030318160A968286BC860DB
:102D5000A9684FF484704860A868016841F00101D7
:102D6000016056F8340069682430886056F83400F1
:102D7000016941F67E62114301616F6356F83400C8
:102D8000012F39D04021C26822F040020A43C260BC
:102D9000E868007A800712D5686B01282ED00221DE
:102DA000404606F06BFB56F83400C16841F48031B0
:102DB000C16056F83400016941F480110161686B0B
:102DC000012856F834001BD04FF4006100F07EFC5F
:102DD00056F83400C16821F01001C16056F8340083
:102DE000016841F08041016056F83400016841F00B
:102DF00000510160BDE8F0810021C4E70121CFE767
:102E00004FF48061E2E700004823002070B50646D9
:102E10001A4CC0EBC60554F83500016821F080411A
:102E2000016054F83500016821F00051016054F848
:102E30003500C16821F02001C16054F835104FF40D
:102E400040400861304606F0DDF9304606F0D9F919
:102E500054F835004FF4406100F038FC04EBC50431
:102E600020690078400702D43046FDF721FC00209D
:102E70006063BDE8704007F0DFBE0000482300201B
:102E800009490868C0F3405000280CD0074800BF2B
:102E900050E8002F42F0400240E80023002BF7D119
:102EA0004FF40010486070470000024000380140B5
:102EB000F8B5334800210568314C1C3C2068314E80
:102EC000C0F3401080B3324605F00F001268AB0625
:102ED0000AD5606A002AC0B2009050D001B0C0B2DA
:102EE000BDE8F04000211047F0B1AB06F1D42368F3
:102EF000C3F300231BB1C30701D001212162A368E2
:102F000013F0010F11D0830702D5022121620121A4
:102F1000030704D508212162400702D406E04007D8
:102F200003D50420206201E004E019B112B10121AF
:102F30000846904720686906C0F380101FD5002816
:102F40001DD000BF54E8000F20F0400044E800020C
:102F5000002AF7D1402020620C490B484A79825858
:102F6000497922F001024250306820B90848016EC8
:102F700021F480410166BDE8F84004F0B3BFF8BD1C
:102F80001C3801409C01002000000240D8C9000804
:102F90000010024070B588B0012000F061F90120F6
:102FA00000F05EF94FF400764FF09044072231466E
:102FB000204600F0BCF902223146204600F0DEF93E
:102FC00002223146204600F012FA6068002520F403
:102FD0000070606001223146204600F0F5F976006D
:102FE00007223146204600F0A2F90222314620464F
:102FF00000F0C4F902223146204600F0F8F960687A
:1030000020F48060606001223146204600F0DCF947
:10301000300100F031F92C4C206820F001002060D4
:103020004FF46120CDE900500820CDE9045002950D
:103030000395069569462046079500F057FB2068E2
:1030400040F001002060E069C0F340500028FAD051
:10305000042000F0F9F8012000F0F6F81C491B48A4
:1030600042F290034A79825847F6F074A2431A4319
:103070004B79C250154A1432D2F8003823F0FF03BE
:1030800043F01903C2F800384A798258497942F06E
:10309000020242500021102007F088FF102007F0A4
:1030A00058FF0321252007F081FF252007F051FF5D
:1030B00008480068002804D10748016E21F48041C7
:1030C000016608B070BD00000038014000000240F9
:1030D000D8C900089C010020001002400249086085
:1030E0004FF4804000F0C8B89C0100202DE9F04169
:1030F00005460C464FF4804000F0BEF81C4A1A49C1
:103100001A485679194B28308E5944F210073E4020
:10311000154F0C37102E5679A7F1040C1ED046F827
:103120000C505579E85110485579001D2D586FF312
:103130000F0525435479255013F1080353E8000F78
:1031400040F0800043E80004002CF7D15079085883
:10315000527940F001008850BDE8F081F551557971
:1031600045F80C00DFE70000000002400038014095
:10317000D8C9000810B5124850E8001F41F02001DE
:1031800040E80013002BF7D100F1080151E8002FAF
:1031900042F0010241E80023002BF7D150E8001F64
:1031A00041F0040140E80012002AF7D10321252054
:1031B00007F0FCFEBDE81040252007F0CABE000065
:1031C00000380140FEE700EB8100006E00F0F8409F
:1031D00070478068C0F3C00070478068C0F380000B
:1031E00070478068C0F380007047042303EAD1531E
:1031F00010B518444369C1F3045107248C40A3431C
:103200008A401343436110BD00EB8100016E21F041
:103210000041114301667047044908B58A6C0243B6
:103220008A64896C0140009108BD000000100240D2
:10323000044908B58A6C02438A64896C0140009194
:1032400008BD000000100240044908B58A6C024322
:103250008A64896C0140009108BD000000100240A2
:10326000044908B5CA6C0243CA64C96C01400091A4
:1032700008BD000000100240044908B50A6E024370
:103280000A66096E0140009108BD0000001002406E
:103290002DE9F041D2E902342343D2E904452C431D
:1032A000234394692343D4692343946A23430F4CF3
:1032B000655C465947F6F077BE431E434651665C4F
:1032C00000F10C0553687351665C2D1F1368735130
:1032D000655C041D136A2E596FF30F061E432E51B1
:1032E000526A00F005F80020BDE8F0811CC9000812
:1032F000074B83EA902001EBC0008100980208444C
:10330000D0F8001821F0FF011143C0F800187047F1
:10331000800010000021016041608160C160016196
:1033200041618161C161016241628162704730B572
:10333000436A090A91FAA1F4B4FA84F4A5000F24AF
:10334000AC4091FAA1F1B1FA81F18900A3438A401E
:103350001343436230BD30B5036891FAA1F4B4FA67
:1033600084F465000324AC4091FAA1F1B1FA81F133
:103370004900A3438A401343036030BD30B503685E
:1033800091FAA1F4B4FA84F465000324AC4091FAF4
:10339000A1F1B1FA81F14900A3438A4013430360CC
:1033A00030BD30B5C36891FAA1F4B4FA84F4650075
:1033B0000324AC4091FAA1F1B1FA81F14900A34391
:1033C0008A401343C36030BD30B5C36891FAA1F49D
:1033D000B4FA84F465000324AC4091FAA1F1B1FA87
:1033E00081F14900A3438A401343C36030BD30B527
:1033F000836891FAA1F4B4FA84F465000324AC4024
:1034000091FAA1F1B1FA81F14900A3438A40134333
:10341000836030BD70B500241F49204D4FF4004635
:10342000C02803D0B0F5407F1CD019E0D1F8880047
:1034300000F0C00040F440004038B0F5400027D014
:10344000402804D080281CD106E0044608E000F0A3
:1034500083F828B12C4603E000F086F800B134462A
:10346000204670BDD1F888000D4900F4407040F04E
:10347000407040180CD0B0F5807FE8D0B0F5007FE8
:10348000EAD003F067FD03F035FD03F043FDDCE710
:1034900003F060FDD9E70000001002400024F400B2
:1034A00000FFFFFC70B5002429492A4D4FF4004667
:1034B000032804D00C281AD030282FD040E0D1F8AF
:1034C00088006FF4403100F0030040F440304018B1
:1034D0000AD0012836D002282ED003F03BFD03F09D
:1034E00009FD03F027FD17E003F034FD14E0D1F8E7
:1034F000880000F00C0040F44020001FB0F5402090
:10350000F2D004281ED0082816D000BF03F022FDF8
:1035100003F0F0FC03F0FEFC044611E0D1F8880053
:1035200000F0300040F440101038B0F54010DBD00F
:10353000102807D02028E9D100F016F800B1344651
:10354000204670BD00F008F80028F9D02C46F7E7B7
:10355000001002400024F40002480068C0F38020FC
:1035600070470000001002400248D0F89000C0F3FD
:10357000400070470010024010B5012924D00429F2
:1035800024D0102924D0402924D0B1F5807F23D025
:10359000B1F5806F22D0B1F5805F21D0B1F5804FB9
:1035A00020D0B1F5803F1FD00921104B18305B5C53
:1035B000184403680D4C0A34615C0D4C8C40A343E5
:1035C0008A401343036010BD0021EEE70121ECE7C0
:1035D0000221EAE70321E8E70421E6E70521E4E721
:1035E0000621E2E70721E0E70821DEE79CC90008A1
:1035F0007300010010B501291FD004291FD0102924
:103600001FD040291FD0B1F5807F1ED0B1F5806F4B
:103610001DD0B1F5805F1CD0B1F5804F1BD0B1F546
:10362000803F1AD00921036A0D4C615C02248C4052
:10363000A3438A401343036210BD0021F3E7012135
:10364000F1E70221EFE70321EDE70421EBE7052194
:10365000E9E70621E7E70721E5E70821E3E70000BE
:10366000B0C90008104A08B5904208D10F4AD36D7E
:1036700043F48073D365D26D02F4807200920268C5
:1036800022F000420260CB680A681A434B688968DE
:10369000DB0243EA81110A430168054B19400A43E2
:1036A0000260002008BD000000A0004000100240A1
:1036B0000000F1FFC26822F4C0720A43C260704782
:1036C000C26822F003020A43C2607047C26822F453
:1036D00040620A43C26070474FF400310160072125
:1036E0004160102181600D21C16070472DE9F041DA
:1036F000044600680D46012610F0010F52D12969D9
:10370000A868EA69084369691143084321682E4A99
:10371000114008432060E868616821F4405101438A
:103720006160A869A16821F440710143A160274844
:10373000844201D1032008E02548844201D10C20B5
:1037400003E02448844203D13020FFF7ABFE0BE0B6
:103750002148844201D1C02004E0204884421AD18B
:103760004FF44070FFF756FEA8B1696899B12A6816
:103770000026EB690B2A0ED8194FD2B2B3F5004FD1
:1037800057F82220B0FBF2F00FD000EB5100B0FB55
:10379000F1F080B2E0602888E16A80B221F00F0188
:1037A0000143E1623046BDE8F081400000EB51008A
:1037B000B0FBF1F081B24FF6F07201EA0200C1F302
:1037C00042010843E6E70000F369FFEF00380140DB
:1037D0000044004000480040004C004000500040C1
:1037E00024C900080B4610B501461846FCF772FDC7
:1037F000002010BD30B58BB000240894099420211E
:1038000068460A94FCF77FFD1B484FF0A041042551
:1038100001604FF40021C0E90114C4600461C0E9F3
:103820000545047701214177016280F82440C46294
:10383000046380F838400903C16380F84040FEF714
:1038400005FA08A90C480894FDF720FF0B480090E2
:103850000620019002907F200594CDE9030569467A
:103860000548FDF7C3FF7F210348FDF7C5FE024869
:10387000FEF734FB0BB030BDCC0100200200300459
:1038800010B50420FFF7C8FC0120FFF7C5FC164C5B
:1038900020680022C0F30220032100F071F90146E4
:1038A0000C2007F063FB0C2007F046FB2068002289
:1038B000C0F30220032100F063F901460D2007F058
:1038C00055FB0D2007F038FB20680022C0F30220D2
:1038D000032100F055F90146102007F047FBBDE831
:1038E0001040102007F028BB0CED00E010B505F0EB
:1038F000B3FC04F065FE00B1FEE7084B084A094935
:103900000948FDF7B9FA05F079FC00B1FEE704F0CB
:10391000A7FE00B1FEE762B610BD0000012D000851
:103920000F2D000885060008910600082DE9F047D4
:103930000E468146404900EB4900154601EB8004E4
:103940000227FEF76BFD6168A0EB01084846FCF713
:1039500037FF207810F01C0F51D0C0F382000228EE
:103960004DD00021484607F02FF9C0B1B8F1780FCB
:1039700011D92078C0F38200012816D002282FD058
:1039800003281FD0607820F03E0016306070207849
:1039900000F003002860206820F0200038E0FEF7E7
:1039A0003DFD60607820BDE8F087207800F00301DD
:1039B0004846FFF7B3F9607820F03E00801D607044
:1039C000022016E0207800F003014846FFF7A6F930
:1039D000607820F03E000A30607004203070D6E736
:1039E0004846FCF765FE607820F03E0008306070C5
:1039F00003203070207800F003002860C7E72078AB
:103A0000800607D4FEF70AFD6060206840F02000C1
:103A100020600FE0FEF702FD6168401A022809D914
:103A2000206820F020002060607820F03E001630F2
:103A3000607000273846B6E73C2300202DE9F041AE
:103A40000F460646274900EB4600904601EB8004EE
:103A50002549254AC6EBC60001EBC00152F83000EB
:103A6000496B02254069012906D000BF00F44021BE
:103A700005D14FF4803204E000F44031F8E74FF410
:103A80008022184B06EB46008A4253F8200021D0D2
:103A9000810606D440F020002060FEF7BFFC606085
:103AA0001DE0FEF7BBFC6168401A022817D93046BA
:103AB000FFF7ACF9206820F020002060607820F04B
:103AC0003E00163060700120002138700D46C8F8A5
:103AD000001004E020F020004FF0FF352060284661
:103AE000BDE8F0813C2300204823002070B5064645
:103AF000214900EB460001EB800402252088C00527
:103B000009D5304604F016FB206820F48070206050
:103B10000120FEF77FFA3046FCF752FE207810F0C5
:103B20001C0F1AD0C0F38200022819D0FEF776FCD1
:103B30006060607820F03E00001D60700120FEF79C
:103B400069FA3046FCF73CFE207810F01C0F0CD0D0
:103B50003046FCF7DDFD284670BD4FF0FF35FAE733
:103B6000607820F03E00083003E0607820F03E00EE
:103B7000801C6070EFE700003C230020FEE77047E8
:103B800030B500F00703C3F10704042C00D9042466
:103B9000181D072801D2002300E0DB1E012505FACD
:103BA00004F0401E084098409D406D1E154028437B
:103BB00030BD828C4FF0FF31520402D0818CC1F3B2
:103BC0000E01428C520407D0428CC2F30E028A428C
:103BD00002D8408CC0F30E010846704783685B68CA
:103BE000002B01D0007C184770474268136861F3CE
:103BF00082031360007C06F0B1BF000038B50246B6
:103C000000208A4209D20C4C18200022009024681F
:103C100002A311460620A047022038BD446174610A
:103C20002053697A65206973206E6F7420636F7208
:103C30007265637400000000C001002030B51024DC
:103C4000039D052B06D0062B0DD0072B10D0092B7A
:103C50001FD106E045744169002421F400514161FF
:103C600017E0092415E0416941F48051416110E0F9
:103C700029B1012A01D007240BE0992108E041680D
:103C80000988C1F30221042905D0012A03D011219A
:103C90004174204630BD0F21FAE72DE9F04104467A
:103CA000808E0025010406D410F4E04F03D100F00B
:103CB0001F000D2811D0207F03270F26102826D0A3
:103CC00010DC102828D2DFE800F033222225202241
:103CD0002222222222222222222210206074152057
:103CE000BDE8F081582817D004DC542814DA1128D4
:103CF00012D108E0593807280ED2DFE800F00D0D88
:103D00000D0D0D0D0800667413E0152511E011204E
:103D10006074FAE76674F8E7207C5C2105F028FC03
:103D200060680068C0F302210329F3D14007F1D491
:103D300067742846D4E72DE9F041044690F8340032
:103D4000102700F01F0101252A260B204FF0110833
:103D5000172971D2DFE801F0C31F0CC0C01FC021BA
:103D60005D4C3645C018C3C3BD769ABAA5B4880069
:103D70006068007840070ED402202077207C2B2139
:103D800005F0F6FB982017E003202077207C3221F5
:103D900005F0EEFB6774BDE8F081062020776068CF
:103DA0000068410703D421680979090745D5207CBB
:103DB0000C2105F0DDFB4C206074ECE76574EAE74C
:103DC0006674E8E720680079000707D508202077A7
:103DD000207C3C2105F0CCFB2220EDE760680078D8
:103DE0002BE0A068C06A0028F8D027779D20E3E781
:103DF000207C232105F0BCFB207D10F0E00F4FF06C
:103E00000F00D9D1A168896B0029E7D020779320D2
:103E1000D2E760680068C0F3022103290DD1410791
:103E200003D521680979090707D5072020771D20C8
:103E30006074207C062125E051E000F00300022898
:103E4000BED1BBE72068017A0907B7D56168097858
:103E5000490702D400790007B0D50A2020776320F3
:103E60006074207C46210DE060680078400703D52F
:103E7000206800790007A1D55F2020776420607456
:103E8000207C6021BDE8F04105F072BB2168097A11
:103E9000890693D52077207C4D2105F069FB3020E1
:103EA0008AE72168097A490788D52077207C49214B
:103EB00005F05EFB6068007840070DD52D207BE79C
:103EC0002068007A0006BCD52F2075E709202077EE
:103ED00074E7207C5921D5E784F811805BE760689E
:103EE000007800F003000228ABD054E7F8B5044690
:103EF000808E012500F01F0106294AD006DC012929
:103F000026D0022908D0032904D138E0072950D04F
:103F10000F2939D0112030E0A06B8178C27801EBF5
:103F2000022102794079120402EB006008440090FB
:103F300060680078400721D5A1680423207C8E6941
:103F40006A460621B04725770020A084092014E0A6
:103F500061680978490711D4C0F38111207C00F011
:103F6000C9F9A08EA168C0F302308300A26B8D69ED
:103F70000421207C921CA84744206074F8BD204690
:103F8000BDE8F84000F0FCBA2046BDE8F84000F07B
:103F900017B82068007AC00609D5A168A26B04236F
:103FA0008D690B21207C921CA8472C20E5E76574C5
:103FB000F8BD20680089C005F9D53D20DDE7000087
:103FC0002DE9F047026804464FF00105107980069C
:103FD00001D4E068A0B1A06B8178C37801EB032124
:103FE000037940791B0403EB00600144C1F3C03046
:103FF000B8B100280BD011F0C00FC4F8501208D08F
:104000006068007800F00300022800D16574BDE804
:10401000F0879088C005F3D52046BDE8F04700F052
:10402000F1BAA08E0623C0F30230401E84F8AC041F
:10403000002007264FF008094FF0090A1CE000BFD6
:10404000A26B03EB800706EB800CD75D12F80CC067
:104050000AEB800807EB0C2709EB800C12F80CC068
:1040600012F808204FEA0C4C0CEB02623A4404EBC5
:104070008007401CC7F8942494F8AC248242DFD80F
:10408000E0680028BCD0066C002EB9D0207C04F279
:10409000944304F2AC42B0470028B1D103206074CD
:1040A000B5E770B50446806B8178C07801EB0020DD
:1040B00080B2A4F85A02A18E10F4F04F01F01F0252
:1040C00084F85C2203D0420501D534207AE0020452
:1040D00011D4C0F30800A4F88E04002006E0A26BFF
:1040E000011D515C2218401C82F88112B4F88E1414
:1040F0008142F4D818E010F4F04F09D1420513D4EE
:10410000C1F3023107290FD3C0F308011A290BD9D3
:10411000410509D4B4F88E14C0F30800884203D9CD
:104120000020E08337204DE0217F01200325002976
:1041300094F85C1248D0072933D006DC012909D055
:1041400002291FD005293DD132E00E293AD00F298E
:1041500038D10BE0A168A26B18238E690821207C5E
:10416000121DB0476574207C472116E0A168A26B40
:1041700018238E691321207C121DB0476574207CA2
:1041800062210AE0A168A26B06238E690921207CC6
:10419000121DB0476574207C4E21BDE8704005F0CB
:1041A000E7B9A1681A23207C8E69A26B0D2105E076
:1041B000A168207CA26B09238E691121121DB047D2
:1041C000657470BD607470BDCB1E04F28122092B32
:1041D000F8D2DFE803F00614052205474D303C0015
:1041E000F0E721680989C904ECD5A168A26B012315
:1041F0008D691021207C121DA8473A20E2E7216832
:104200000989C904DED5A168A26B01238D690E213D
:10421000207C121DA8473B20D4E72168097A490673
:10422000D0D5A168A26B02238D690C21207C121DC0
:10423000A8473C20C6E723681B895B0515E0A368F7
:104240001E69002EBED0B4F88E34207CB7E7A0687B
:104250000569002DB7D0B4F88E34207CAC46BDE89B
:104260007040604723681B899B05002BE7DBA9E7AB
:10427000206800898005A6D5A0680669002EE2D1D5
:1042800070BD30B4EFF3108172B690F83C20002A74
:1042900020D0521E12F0FF0200EB02044FF0000388
:1042A00084F84D3210D00022841894F84D426406F0
:1042B0000CD5521C80F83C2081F31088017C80686A
:1042C000826A30BC084610470122EDE780F83C3096
:1042D00081F3108830BC704728B1012805D002282E
:1042E00005D014207047112070471220704713200A
:1042F000704700000F4B30B453F8202055682A68EF
:1043000002F003048C4200D8214661F301022A60C6
:1043100053F820104B6802F00301012902D042F04B
:10432000200101E022F02001196030BC01F00301FE
:1043300006F01EBCB8010020094A30B452F8202013
:104340005468226802F003038B4200D8194661F3D7
:104350009B62226030BCC2F3816106F06FB900003D
:10436000B801002070B51422EFF3108172B690F8F6
:104370003C3033B300F5137425461C5D640601D44C
:10438000032070BD03EB431400EBC404CB3C8463F7
:104390002678647806EB042484865B5D03F01F03B3
:1043A000012B04D0022B05D0042B0AD105E01122E9
:1043B000002304E01222012301E01322022380F8EB
:1043C000303081F31088104670BD0000034951F869
:1043D000200040680068C0F340607047B8010020CA
:1043E00090F8301080F83110818E0A0401D5FFF763
:1043F00058BE11F4E04F01D0FFF778BDFFF79BBC2A
:1044000070470000064951F820200020EFF310818A
:1044100072B692F83C2002B1012081F310887047F7
:10442000B8010020064951F820100A7F092A06D059
:104430004A6942F480324A618968896A084770474C
:10444000B80100200D4A52F820200020131893F8DC
:104450004D322BB1401CC0B20228F7D30020704768
:104460001044202380F84D3290F84D2201238B40D8
:104470001A4380F84D22012070470000B801002047
:10448000114930B451F820200021531893F84D32CF
:10449000C3F34113012B05D0491CC9B20229F4D33F
:1044A00030BC7047531893F84D4244F0400483F8F1
:1044B0004D4292F83C3013B9491C82F83C10916887
:1044C000896A30BC08470000B80100200C4A52F845
:1044D00020200020131893F84D32C3F34113012B11
:1044E00004D0401CC0B20228F4D3704700EB401047
:1044F00002EBC0004FF484723D30FBF7EBBE0000CE
:10450000B80100200A4951F8201000200A1892F83A
:104510004D22C2F34112012A04D0401CC0B202282D
:10452000F4D370470844002280F84D227047000001
:10453000B801002070B505461048052950F82540FF
:1045400009D0606940F400306061A068816A284643
:10455000BDE8704008476068016821F01001016003
:1045600060691E2120F4407000F5807060611420A5
:1045700084F83200207C04F0FBFFE6E7B80100205D
:104580007CB50446002000900190A06B01AB8178BF
:10459000C27801EB022102794079120402EB00603B
:1045A0000E18A168207C6A464D690321A8470421A2
:1045B0000198FFF723FB032550B960680088C0F31A
:1045C0000220032804D10098A0F59851883901D021
:1045D00065747CBD300F052807D0082807D009284E
:1045E00008D00A2809D02A2002E0272000E029204C
:1045F00060747CBD207C652101E0207C662104F094
:10460000B7FFE5E72DE9F0410446808EC0F30230A4
:10461000401E84F8AC0494F83100002876D10622BC
:104620000723082509261CE0A16B02EB800703EB9A
:10463000800CCF5D11F80CC006EB800E07EB0C2749
:1046400005EB800C11F80CC011F80E104FEA0C4C61
:104650000CEB0161394404EB8007401CC0B2C7F881
:10466000941494F8AC148142DED8D4F8500248F285
:104670000F0100F01F0348F21902202B46D2DFE899
:1046800003F0451021262B30354545454545454528
:1046900045454747474747474747474747474747AE
:1046A0004747502222776568C0F341302A68C2F339
:1046B0004013834200D8184660F345122A60E18314
:1046C000752022E052202077E18376201DE05320E0
:1046D0002077E183782018E054202077E283792046
:1046E00013E055202077E2837A200EE0E068C36A69
:1046F00053B194F8AC04D4F8942410B1012101E032
:1047000004E00021207C984703206074BDE8F0811C
:104710005A202077E1837B20F7E70021A0F8601280
:1047200080F86212704710B5044690F8320018B154
:10473000207C5B2104F01CFF204600F052F86068EA
:10474000007840072068007900F00303207C08D53A
:104750000122114606F0E2F96068016841F00801A3
:1047600007E00022114606F0D9F96068016821F0DF
:1047700008010160206801796068026861F3010244
:104780000260207C012106F055F8207CBDE8104035
:1047900005F0F2BF10B5044690F8320018B1207C45
:1047A0005B2104F0E5FE204600F01BF801212046C5
:1047B00000F038FA207C05F0DFFF606800684107F0
:1047C00000F00303C0F3C002207C04D5012106F0F1
:1047D000A5F9022003E0002106F0A0F93E20607454
:1047E00010BD7CB50446002001906068016821F08E
:1047F000100101600021204600F014FA4FF41371FB
:1048000004F11400FBF77FFDA1680423207C8D696F
:1048100001AA0221A8474FF080700090A1680423EC
:10482000207C8D696A460621A8472068007900F03F
:104830000301207C05F002FF2068017960680268AE
:1048400061F39B6202607CBDF0B55E4C03460020C4
:1048500054F82370BB8EC3F302335B1EDBB2032B11
:1048600075D30C784D7804EB05248D782E04CD7823
:1048700006EB0565661916600D7991F805C0CC79CF
:1048800005EB0C2591F806C0DB1E4FEA0C4C0CEB37
:1048900004642C44546091F808C04D7ACC7A0CEB37
:1048A000052591F80AC04FEA0C4C0CEB04642C442B
:1048B000946013F0FF0470D092F82030C6F3C26CFD
:1048C00023F00F0582F8205001F10C03BCF1060F14
:1048D00062D2DFE80CF051030316293D45F00805CC
:1048E00082F8205091F80CC04D7B0CEB052593F815
:1048F00002C0DB784FEA0C4C0CEB03632B44936152
:1049000036E045F0010582F820500D7B91F80DC08E
:1049100005EB0C2593F802C0DB784FEA0C4C0CEB4E
:1049200003632B44D36023E045F0040582F8205054
:104930000D7B91F80DC005EB0C2593F802C0DB78D8
:104940004FEA0C4C0CEB03632B44536110E023E063
:1049500045F0020582F820500D7B91F80DC005EB63
:104960000C2C9D78DB782D0405EB03636344136105
:10497000641E14F0FF0F10D097F83430C3F3811386
:10498000012B0AD9C6F3C253002B06D0012B05D048
:10499000022B03D0032B01D00220F0BD12F8203FE0
:1049A00043F0100302F804390C7C01F11003497C38
:1049B00004EB01219C78DB78240404EB03631944A5
:1049C0001160F0BDB801002070B5114C54F8200002
:1049D000808E9983C0F30230401EC4B2002018605C
:1049E0001118155C4E78001D05EB06258E78C978E8
:1049F000360406EB016129441D68C0B203EB85054E
:104A000069601968491C1960B0EB840FE8D370BD68
:104A1000B8010020F0B51C4B53F82000808EC0F385
:104A20000230401EC5B200201076034650760126A3
:104A30000F180C5C7F7804EB07242704147E3F0CCE
:104A400022F81470147E02D0641C147601E0012355
:104A50005676801CC0B20F180C5C7F7804EB0724DC
:104A60002704147E3F0C22F81470147E02D0641CBC
:104A7000147601E001235676801CC0B2B0EB850F9E
:104A800001D2002BD4D0F0BDB80100202DE9FC47A5
:104A90001E46DDF8289090468A460446022700F21A
:104AA000632560680088C00404D40020607410206E
:104AB000BDE8FC87CDE90079207C2B464246514673
:104AC00005F0C6FE03460328EBD00096B8F10D0FA3
:104AD00005D0002251462046FFF7B0F8E8E7012252
:104AE000F8E700002DE9FC479146DDE90A288A46EF
:104AF000044600210C9D12E0002004EB810700BF5A
:104B00001E684FEAC00C26FA0CF607EB000C401C9E
:104B1000C0B28CF865620428F2D3491C1B1D914277
:104B2000EAD3022000EB820087B204F263266068B9
:104B30000088C00402D41020BDE8FC87CDE90075D0
:104B4000207C33464A46514605F082FE0346032840
:104B5000EDD0002251462046CDF80080FFF76EF8D8
:104B6000EAE72DE9FC479946DDE90B76DDF8288078
:104B70008A46044642F0800560680088C00404D478
:104B8000112060741020BDE8FC87CDE90086207CF0
:104B90004B462A46514605F05BFE03460328EBD000
:104BA0000022514620460097FFF748F8EBE770B522
:104BB0000D460446052909D05E21207C04F0D8FC6E
:104BC000207C2946BDE8704005F002BE1F21F4E7B5
:104BD000FEB5044600200E460290A168207C02AB80
:104BE0004D6904F265220021A847029804F263256A
:104BF000801C029004210298FFF700F818B9606841
:104C00000088C00401D41020FEBD02982B4680B25B
:104C1000CDE90006207C0122002105F019FE0328C1
:104C2000E8D0FEBD30B442681368C3F302248C425E
:104C300007D061F30A231360007C30BC5A2104F0D2
:104C400097BC30BC70477CB504460225A168007C47
:104C5000CA6901A99047014600200A2916D00B29EC
:104C600010D0009060680D290088C0F3022030D079
:104C7000032835D00E23042200212046FFF706FF2B
:104C800028467CBD0C2302220090F5E748F21E0165
:104C9000E18361681E250988C1F3022101290BD037
:104CA0000199032908D1217DC1F38101032903D191
:104CB0004FF40041E183002500900C2303220021E2
:104CC0002046FFF7E3FE0199606961F383006061AC
:104CD000D6E7032802D00E230C22CDE70323FBE7FF
:104CE0000323C8E7F8B50446407C022500270E469A
:104CF00003280FD127776068007800F003000228AE
:104D000002D1207C05F098FD04206074207C67218E
:104D100004F02EFC307814280BD02046FFF760FBFF
:104D20003078142857D0142030702046FFF7A9FAA5
:104D300051E061694FF00F008A0C4FF400451FD01D
:104D4000228CAA420ED16074244D009700236A225F
:104D50002D68217C0920A84794F86002401C84F843
:104D6000600227E0A08EC0F3422000EB914000EBF0
:104D7000001000EB400040F40041218485B22AE09D
:104D8000A18CA94201D1607414E0207CFFF73AFBAA
:104D900090B994F8320078B194F8331084F8311057
:104DA000607484F83270A06AE06254F8140F40F422
:104DB0000050206000250EE0608CA84207D1678477
:104DC00094F86202401C84F862020520DBE720466A
:104DD000FEF7EFFE05462846F8BD0000C0010020A2
:104DE00070B50446007D0225C0F340012046FFF760
:104DF000EFFE0026052815D009283AD0207D80072F
:104E000025D494F8610232282ED848F29600E08327
:104E1000962508206074608C40042AD0608CC0F312
:104E20000E0526E001202077606940F002006061F5
:104E300084F8616284F8606248F21B00E083162007
:104E400060741B25207C0F2104F092FB11E0606848
:104E5000007800F00300022802D1207C05F0ECFC71
:104E600011206074002504E0207C212104F080FBE7
:104E70006674284670BD70B58CB00446142931D1D3
:104E8000E06800282ED0C66B002E2BD000258DF8B0
:104E90000C50207C06AB03AA04A9B047049820F468
:104EA00000419DF80C000491401CC0B28DF80C002C
:104EB000059161680978490703D5217DC1F3400157
:104EC00000E0022100900322CDE9012194F8311085
:104ED00005AB0F222046FFF705FE08B959202077C1
:104EE00084F832500CB070BD2DE9F04F0446407C80
:104EF0000225753895B00E46062802D83178142957
:104F000076D1032704F514724FF0010B4FF4004AD9
:104F10004FF47F414FF014084FF0000904921B2812
:104F200066D2DFE800F00E6DF8F6F5F4F365F26591
:104F3000F165F0EFEEEDEC65EB65EA65E9E8E76554
:104F4000E600E08B012650457DD0D4F8500220F0D9
:104F50001F00401C40F40040C4F8500262681378FF
:104F6000C3F3401363F34E30C4F8500212681307C2
:104F700003D502F00302012A06D0E26822B11268CA
:104F800012B1B1EB104F03D020F0C000803034E0FC
:104F9000207C0BA9904703282BD00F28D4F850026F
:104FA000F2D120F0C0004030C4F850020B980490B9
:104FB0000C9805900D9806909DF84C0004268207E9
:104FC00003A902D50F9A05260792020703D5119A65
:104FD00041F82620761CC00603D5129841F8260019
:104FE000761CD4F85002CDE90067CDE9029015E2B5
:104FF00097E2D4F8500240F0C000C4F85002F0E745
:10500000E08B012650459FD0D4F8500220F01F00BD
:10501000801C40F40040C4F8500262681378C3F367
:10502000401363F34E30C4F850021268130703D5DF
:1050300002F00302012A05D0E268536813B1B1EB14
:10504000104F05D000E0E7E020F0C00080304AE0DB
:10505000207C04F2AD420BA9984703283FD00F28CB
:10506000D4F85002EED120F0C0004030C4F8500215
:105070001C2103A8FBF747F90021084603AA0B9B54
:1050800013E0491CC6074FEA500602EB860633F8C8
:105090001080D6F804C0C9B202D04CEA080C01E076
:1050A0004CEA084C401CC6F804C094F8AD64864233
:1050B00001D90C28E5D3F0B2401A84F8AD040C29CC
:1050C00005D0022000EB5106D4F850020DE0072174
:1050D000D4F85002772203908DE8060278E0D4F8E5
:1050E000500240F0C000C4F8500203908DE8C002A6
:1050F00094E1FDE3E2E348E3C8E24DE2BFE1F8E317
:10510000F8E39DE30AE389E215E28BE142E100E185
:10511000CAE068E0FFE7E08B50457DD0D4F850024C
:105120000CAA20F01F00801CC4F85002A4F85212F0
:10513000D4F8500240F40040C4F850026168097885
:10514000C1F3401161F34E3020F0C0004030C4F88C
:105150005002E168207C4B680BA998471C2103A8EA
:10516000FBF7D1F80021084603AA0B9B13E0491C6A
:10517000C6074FEA500602EB860633F81080D6F8D1
:1051800004C0C9B202D04CEA080C01E04CEA084C59
:10519000401CC6F804C094F8AD64864201D90C28BE
:1051A000E5D3F0B2401A84F8AD040C290CD00220EB
:1051B00000EB51008DE8810294F8311013460F2264
:1051C0002046FFF78FFCACE1072077228DE805022F
:1051D00094F8311003AB0F222046FFF783FC48F20E
:1051E0000F00E0839DE1E08B4FF00108504594D023
:1051F000D4F8500220F01F00C01C40F40040C4F856
:10520000500261680A78C2F3401262F34E30C4F86B
:10521000500209680A0700E0F5E003D501F0030138
:1052200001290CD0E1688E684EB1010C207C03ABE3
:1052300005AAB047032806D00F2832D10AE020F093
:10524000C000803003E0D4F8500240F0C000C4F841
:1052500050021DE09DF80C0018B3062821D8D4F8A0
:1052600050020BAA20F0C00040300021C4F85002C8
:1052700008E0059802EB810608F1010808C8736090
:10528000491C05909DF80C008142F2D3D4F85002DD
:105290000B90CDE90087CDF8089094F831100BAB56
:1052A0008DE7D4F85002CAE7E08B50459FD0D4F880
:1052B000500220F01F00001D40F40040C4F85002CE
:1052C00061680A78C2F3401262F34E30C4F85002AB
:1052D0000978090755D4E168CB68EBB3C0F3022223
:1052E000010C207C984703284FD00F280ED1D4F80A
:1052F000500220F0C0004030010AC4F8500260693A
:1053000061F3471034E0C4F8500232E0D4F85002A0
:1053100037E0E08B504576D0D4F8500220F01F00E3
:10532000401D40F40040C4F8500261680A78C2F39E
:10533000401262F34E30C4F850020978090720D4B5
:10534000E1680B6943B1C0F30222010C207C98474D
:1053500003281AD00F2800E013E0D7D1D4F8500268
:1053600020F0C0004030C4F85002606920F0E00036
:105370006061CDF800B0CDE9017994F83110049B5B
:105380001DE720F0C0008030BDE7D4F8500240F0A7
:10539000C000B8E7E08B4FF00108504533D0E0681B
:1053A000466B6EB194F8500204F2944300F01F0172
:1053B000207C04F2AC42B047032825D00F2805D04A
:1053C000D4F8500220F0C000803021E0D4F8500220
:1053D00003AA20F0C0004030C4F8500200200BE0C7
:1053E00004EB800102EB8003D1F89414596008F1BA
:1053F000010101F0FF08401C94F8AC148142EFD881
:10540000D4F8500206E08AE0D4F8500240F0C00020
:10541000C4F85002CDE90290CDE9008794F831102C
:1054200003ABCCE6D4F8500220F01F00401C40F43F
:105430000040C4F8500262681378C3F3401363F36A
:105440004E3020F4F860C4F85002A4F852121078DC
:10545000400703D5207DC0F3400000E002208722F2
:10546000CDF800B0CDE9012094F831100F2220468C
:10547000049BFFF737FB002853D1502000E194F83C
:105480003100FEF729FF317888423FD1A08E020417
:105490003CD410F4E04F39D000F01F000F2835D174
:1054A000142904D086F800802046FEF7EAFEA16B9E
:1054B0008878CA784B7900EB02200A79120402EB53
:1054C0000362104400F01F02012A1FD110F0C00F28
:1054D0001CD0E2685269002A0ED0C0F38115012D5C
:1054E0000AD1207C0BAA891DFFF7AEF90028207C89
:1054F00003D01B2104F03CF8EAE2E1680BAB2A463A
:105500004E690021B047207C5121F3E794F8340024
:1055100000F01F0010287DD0E08B5045ACD167749F
:10552000002568E2A4F81E9067740025207C5921AC
:1055300004F01EF85FE2D4F8500220F0DF00801C77
:10554000C4F85002A4F85212D4F8500240F40040BB
:10555000C4F8500261680A78C2F3401262F34E3018
:1055600020F4E060C4F850020878400703D5207D9D
:10557000C0F3400000E002208922CDF800B0CDE960
:10558000012094F831100F222046049BFFF7AAFA5D
:105590000028C6D1522073E094F83100FEF79CFE3B
:1055A00031788842B2D1A08E0204AFD410F4E04F1B
:1055B000ACD000F01F000F28A8D1142904D086F821
:1055C00000802046FEF75DFEA16B8878CA784B7993
:1055D00000EB02200A79120402EB0362104400F08F
:1055E0001F028346022A91D11BF0C00F8ED0E068C3
:1055F000806900287ED0207C0BAA891DFFF70AFA5B
:10560000E368CBF3811294F831109D69207C0BABD9
:10561000A84700E05FE2207C53216BE7D4F85002FA
:1056200020F0DF00C01CC4F85002B4F85802A4F8FF
:105630005202D4F8500240F40040C4F850026168AD
:105640000A78C2F3401262F34E3020F4E060C4F8EE
:1056500050020878400703D5207DC0F3400000E0E9
:1056600002208B22CDF800B0CDE9012094F8311052
:105670000F222046049BFFF735FA002889D15320DA
:10568000207748F21E00E0831E25B4E194F8310033
:10569000FEF722FE3178884284D1A08E020484D4A1
:1056A00010F4E04F84D000F01F000F2884D114299B
:1056B00004D086F800802046FEF7E3FDA26B9078C8
:1056C000D178537900EB01201179090401EB0361D2
:1056D000084400F01F018346032984D11BF0C00F4A
:1056E00084D0E068C069002884D0D4F85002010C4E
:1056F000207C00E082E00BAB921DFFF765F9E268C9
:10570000CBF3811594F83110D669207C0BAB2A4677
:10571000B047012D72D1207C5421EBE6D4F8500221
:1057200020F0DF00001DC4F85002B4F85802A4F8BD
:105730005202D4F8500240F40040C4F850026168AC
:105740000A78C2F3401262F34E306269530963F380
:105750000A20C4F850020878400702D5C2F340007E
:1057600000E002208C22CDF800B0CDE9012094F8B1
:1057700031100F222046049BFFF7B4F900287DD199
:1057800054202077207C342191E04FF0340B94F8A2
:105790003100FEF7A1FD3178884287D1A08E020446
:1057A0003FF5B4AE10F4E04F9AD000F01F000F2880
:1057B00093D1142904D086F800802046FEF761FDBD
:1057C00084F81C90A06B8278C17802EB01210279E9
:1057D0004079120402EB0060084400F01F01042924
:1057E000DBD110F0C00FDFD0C0F381157DB1012DEA
:1057F00005D0022D05D0032D09D10FE068E1352039
:1058000004E0606920F0E000606136208346207C7F
:10581000594603F0ADFEE068066A8FE0606920F04B
:10582000E00060613720F1E7D4F850022A46C0F367
:1058300002210091030C94F83110207CB04747E11D
:10584000D4F8500220F0DF00401DC4F85002B4F834
:105850005802A4F85202D4F8500240F40040C4F8B0
:10586000500261680A78C2F3401262F34E306269F6
:10587000530963F30A20C4F8500200E03BE00878C3
:10588000400702D5C2F3400000E002208D22CDF88F
:1058900000B0CDE9012094F831100F222046049B7E
:1058A000FFF720F938BB55202077207C552103F0E5
:1058B0005FFE48F23200E08332259CE094F831002C
:1058C000FEF70AFD317888428AD1A08E02043FF5A6
:1058D0001DAE10F4E04F86D000F01F000F28F3D16A
:1058E000142904D086F800802046FEF7CAFC03E0A5
:1058F00085E02DE0F9E07EE084F81C90A06B8178D3
:10590000C27801EB022102794079120402EB0060B7
:10591000084400F01F010529D6D110F0C00FDAD0DD
:10592000C0F38115012D0DD0022D0DD0032D0DD00A
:105930005521207C03F01CFEE068466A002E7FF4AF
:1059400073AFC5E05621F4E75721F2E75821F0E79D
:105950008DF80C90D4F8500294F8541220F0C00046
:1059600061F30400C4F85002B4F85802A4F85202DB
:10597000D4F850024E4640F40040C4F8500261682A
:105980000978C1F3401161F34E3020F4E06000F576
:105990008070C4F850020B90E1680F6B47B10CA9FE
:1059A000009100F01F0294F83110207C03ABB8473F
:1059B0009DF80C00401CC0B28DF80C00616809789D
:1059C000490703D5217DC1F3400100E00221009089
:1059D0008F22CDE9012194F831100BAB0F22204624
:1059E000FFF780F828B95A20207748F21E00E0839C
:1059F0001E2584F8326015B02846BDE8F08FA08ED1
:105A0000C0F30230401E8DF8040094F83100FEF718
:105A100063FC317888427FF479ADA08E02043FF5B3
:105A200075AD10F4E04F3FF471AD00F01F000F288A
:105A3000F1D1142904D086F800802046FEF721FC1D
:105A4000A06B8178C27801EB0221027940791204BF
:105A500002EB00600844D4F8541200F01F028A429E
:105A6000D9D110F0C00FDED0E068806B80B3002089
:105A70000BAB4FF0070B4FF0060A4FF0080E09254D
:105A80001AE000BFA16B0AEB800605EB800811F855
:105A900006C00BEB80068E5D0CEB06260EEB800C31
:105AA00011F80CC011F808104FEA0C4C0CEB016116
:105AB000314443F82010401C9DF804108842E1D383
:105AC0000093E36894F83110207C9D6B01ABA847EC
:105AD000A4F81E9023E5307814283FF423AD86F80F
